:020000040800F2
:1000000000000520591D0008291D00082B1D0008AF
:100010002D1D00082F1D0008311D000800000000E4
:10002000000000000000000000000000331D000878
:10003000351D000800000000371D0008391D0008AC
:10004000A91D0008A91D0008A91D0008A91D000878
:10005000A91D0008A91D0008A91D0008A91D000868
:10006000A91D0008A91D0008A91D0008A91D000858
:10007000A91D0008A91D0008A91D0008A91D000848
:10008000A91D0008A91D0008A91D0008A91D000838
:10009000A91D0008A91D0008A91D0008A91D000828
:1000A000A91D0008A91D0008A91D0008A91D000818
:1000B000A91D0008A91D0008A91D0008A91D000808
:1000C000A91D0008A91D0008A91D0008A91D0008F8
:1000D000A91D0008A91D0008A91D0008A91D0008E8
:1000E000A91D0008A91D0008A91D0008A91D0008D8
:1000F000A91D0008A91D0008A91D0008A91D0008C8
:10010000A91D0008A91D0008A91D0008A91D0008B7
:10011000A91D0008A91D0008A91D0008A91D0008A7
:10012000A91D0008A91D0008A91D0008A91D000897
:10013000A91D0008A91D0008A91D0008A91D000887
:10014000A91D0008A91D0008A91D0008A91D000877
:10015000A91D0008A91D0008A91D0008A91D000867
:10016000A91D0008A91D0008A91D0008A91D000857
:10017000A91D0008A91D0008A91D00080000000015
:10018000A91D0008A91D0008A91D0008A91D000837
:10019000A91D0008A91D0008A91D0008A91D000827
:1001A000A91D0008A91D0008A91D0008A91D000817
:1001B000A91D0008A91D0008A91D0008A91D000807
:0801C000A91D0008A91D00089B
:1001C80010B5054C237833B9044B13B10448AFF389
:1001D80000800123237010BD10FC032000000000E4
:1001E800041E000808B5034B1BB103490348AFF3CD
:1001F800008008BD0000000014FC0320041E000855
:1002080053B94AB9002908BF00281CBF4FF0FF3175
:100218004FF0FF3000F07AB9ADF1080C6DE904CE6B
:1002280000F006F8DDF804E0DDE9022304B07047C9
:100238002DE9F0478C460D460446089E002B51D107
:100248008A4217466DD9B2FA82FEBEF1000F0BD072
:10025800CEF1200C01FA0EF520FA0CFC02FA0EF78A
:100268004CEA050C00FA0EF44FEA174A250CBCFBC1
:10027800FAF81FFA87F90AFB18CC45EA0C4508FB7F
:1002880009F3AB420AD9ED1908F1FF3280F0238156
:10029800AB4240F22081A8F102083D44ED1AA4B215
:1002A800B5FBFAF00AFB105544EA054400FB09F9CE
:1002B800A14509D9E41900F1FF3380F00A81A1456D
:1002C80040F2078102383C44A4EB090440EA0840A4
:1002D8000021002E61D024FA0EF4002334607360EC
:1002E800BDE8F0878B4207D9002E54D0002186E85C
:1002F80021000846BDE8F087B3FA83F1002940F0F1
:100308008E80AB4202D3824200F2FA80841A65EBF7
:1003180003050120AC46002E3FD086E81010BDE84A
:10032800F08712B90127B7FBF2F7B7FA87FEBEF1DB
:10033800000F34D1EB1B3A0C1FFA87FC0121B3FBE9
:10034800F2F8250C02FB183345EA03450CFB08F3C9
:10035800AB4207D9ED1908F1FF3002D2AB4200F2E7
:10036800D1808046ED1AA3B2B5FBF2F002FB10551E
:1003780043EA05440CFB00FCA44507D9E41900F145
:10038800FF3302D2A44500F2B8801846A4EB0C044F
:1003980040EA08409DE731463046BDE8F087CEF197
:1003A800200405FA0EF307FA0EF720FA04F83A0CBF
:1003B80025FA04F448EA0308B4FBF2F14FEA1845B9
:1003C80002FB11441FFA87FC45EA044501FB0CF3C4
:1003D800AB4200FA0EF409D9ED1901F1FF3080F0B3
:1003E8008A80AB4240F2878002393D44EB1A1FFAFB
:1003F80088F5B3FBF2F002FB103345EA034500FB36
:100408000CF3AB4207D9ED1900F1FF386FD2AB42BC
:100418006DD902383D44EB1A40EA01418FE7C1F13A
:10042800200722FA07F88B4005FA01F448EA03038B
:1004380020FA07FE4FEA134CFD404EEA040EB5FBC6
:10044800FCF94FEA1E440CFB19551FFA83F844EADD
:10045800054509FB08F4AC4202FA01F200FA01FA78
:1004680008D9ED1809F1FF3043D2AC4241D9A9F1BE
:1004780002091D442D1B1FFA8EFEB5FBFCF00CFB78
:1004880010554EEA054400FB08F8A04507D9E418C2
:1004980000F1FF3529D2A04527D902381C4440EA8B
:1004A8000940A4EB0804A0FB02894C45C6464D460A
:1004B80015D312D056B1BAEB0E0364EB050404FA57
:1004C80007F7CB401F43CC40376074600021BDE87C
:1004D800F0871846F8E69046E0E6C245EAD2B8EB5F
:1004E800020E69EB03050138E4E72846D7E74046E2
:1004F80091E78146BEE7014678E702383C4445E784
:10050800084608E7A8F102083D442BE7704700BFFA
:1005180038B50E4B05460E4A18784FF47A73B3FB7C
:10052800F0F31068B0FBF3F000F090F8044658B907
:100538000F2D09D8024629464FF0FF3000F04EF83B
:10054800044B20461D6038BD012038BD0000002046
:100558000CFC03200400002008B5032000F02CF850
:100568000020FFF7D5FF01F0E1FA002008BD0000E8
:10057800034A044B11681B780B441360704700BF93
:1005880030FC032000000020014B1868704700BFB2
:1005980030FC032038B50446FFF7F6FF0546631C18
:1005A8001EBF044B1B78E418FFF7EEFF401B844284
:1005B800FAD838BD00000020074A0002D36800F4CA
:1005C800E06023F4E0631B041B0C43F0BF6343F4B7
:1005D80000330343D360704700ED00E0194B30B59A
:1005E800DC68C4F30224C4F10703251D042B28BFCB
:1005F8000423062D4FF001058CBF033C002405FAA7
:1006080003F3002803F1FF3301EA030101FA04F1BF
:1006180005FA04F404F1FF3402EA040242EA010292
:100628004FEA021207DB00F16040D2B200F56140E8
:1006380080F8002330BD00F00F00D2B2024B1A54EC
:1006480030BD00BF00ED00E014ED00E00138B0F16E
:10065800807F0AD2064BF021064A5860002082F8B3
:100668002310072298601A6070470120704700BF66
:1006780010E000E000ED00E02DE9F04F0B6885B0D8
:10068800DFF8C081019300236C4ADFF8BC91012494
:10069800019D9C402540AC4240F0B6804C684FEA32
:1006A800430E24F0100C0CF1FF36012E12D803264D
:1006B800876806FA0EF627EA0607CE6806FA0EF6E7
:1006C8003E438660C4F3001647689E4027EA050744
:1006D8003E4346600326C768BCF1020F06FA0EF6D1
:1006E8006FEA060607EA060A8F6807FA0EF747EA6E
:1006F8000A07C76016D14FEAD30A03F0070B4FF079
:100708000F0C00EB8A0A4FEA8B0BDAF820700CFA10
:100718000BFC27EA0C0C0F6907FA0BF747EA0C07E2
:10072800CAF8207007683E4004F0030707FA0EFE77
:100738004EEA06060660E60066D5D8F8446023F05F
:10074800030703F0030E4FF00F0C46F4804607F141
:1007580080474FEA8E0EC8F8446007F59C37D8F8F2
:10076800446006F480460396039E0CFA0EF6D7F80A
:1007780008A02AEA060C324EB0424CD006F5806634
:10078800B0424AD006F58066B04248D006F5806689
:10079800B04246D006F58066B04244D0484544D0C1
:1007A80006F50066B04242D006F58066B04240D0F9
:1007B80006F58066B0423ED006F58066B04214BFAA
:1007C8000A26092606FA0EF614F4803F46EA0C06B5
:1007D800BE606FEA050716680CBF3E402E4314F44E
:1007E800003F166056680CBF3E402E4314F4801F2D
:1007F800566096680CBF3E402E43A4029660D668A9
:1008080054BF3E402E43D6600133102B7FF43FAFD8
:1008180005B0BDE8F08F0026D4E70126D2E702260E
:10082800D0E70326CEE70426CCE70526CAE7062646
:10083800C8E70726C6E70826C4E700BF003C014012
:1008480000000240003802400014024003691942C7
:1008580014BF0120002070470AB181617047090464
:10086800FBE7D2014FF0000C2DE9F0438432046815
:100878004F68A318E568D1F800E05868C5F30B4540
:100888000EF10106D1F8189000F470403D4458600C
:10089800E068C0F30B40304440EA0540CD6858603A
:1008A800E068C0F30A000544986800F47040986056
:1008B8008868E6680130C6F30A0630440E6940EAE3
:1008C80005409860186920F0070018611E619D694D
:1008D80091F8320091F83180C3F818C091F830507F
:1008E80045EA096545EA082545EA00459D615869D4
:1008F80020F0FF00586148695861D86920F4E06029
:1009080020F00700D861086ACD690543DD61986A5F
:10091800486AC3F828C098621EB3012E23D0B01EBF
:10092800022822D9072E0CBF02200120DD6AA7EB7E
:100938000E0705F0E025DD628D6AC96A45437843F4
:10094800033040EA0540D862186B20F4FF6020F0BD
:10095800070018631963A35843F00103A350BDE8C7
:10096800F0830420E2E70320E0E70220DEE700004E
:1009780038B50446002863D090F8A13003F0FF0290
:100988001BB980F8A02001F0E9F80223A06884F8D8
:10099800A13023689A6922F070429A616268996965
:1009A8000243E06802432069024360690A4325491B
:1009B8009A619A680A409A609A6842EA0042A06975
:1009C8000243E0699A60DA680A40DA60DA6842EA63
:1009D8000042206A0243606ADA601A690A401A61B2
:1009E8001A6942EA0042A06A02431A615A69114030
:1009F8005961E16A5A6942EA0142216B0A435A6124
:100A0800D96A94F8360001F07F4194F83550D962DC
:100A1800D96A94F834200A4342EA052242EA00429D
:100A28000020DA625A6B42F006025A639A6942F071
:100A380001029A610123C4F8A40084F8A13038BDEA
:100A4800012038BD00F800F0F8B590F8A03006464F
:100A58008E469446012B4FF002001DD034240D46DB
:100A680086F8A100012704FB026486F8A0703834D8
:100A78000FCD0FC40FCD0FC40FCD0FC42B68304658
:100A8800624671462360FFF7ECFE336800205F6220
:100A980086F8A17086F8A000F8BD90F8A030012B68
:100AA8004FF0020370B5044615D080F8A130342306
:100AB8000125534380F8A050C618F16503F13801A9
:100AC8000144FFF7CEFE236800205D6284F8A15040
:100AD80084F8A00070BD184670BD0000194B37B5EA
:100AE8001A6C194C42F080521A641B6C03F0805344
:100AF8000193019B236843F480332360FFF744FD8F
:100B080005466368DA030CD5236843F40033236091
:100B1800FFF73AFD0C4C054663689B030AD5002095
:100B280006E0FFF731FD401BB0F57A7FE9D90320D5
:100B380003B030BDFFF728FD401BB0F57A7FEBD935
:100B4800F5E700BF00380240007000402DE9F3418E
:100B5800044608B901203FE00368D80710D4236889
:100B6800990760D42368190700F1A58023685A07FC
:100B780000F1C680A069002840F0308100202BE0F9
:100B8800944B9A6802F00C02042A07D09A6802F083
:100B98000C02082A0AD15B685A0207D58D4B1B68DC
:100BA8009B03DCD56368002BD9D1D3E76368894DF3
:100BB800B3F5803F13D12B6843F480332B60FFF7E4
:100BC800E3FC844D06462B689F03C8D4FFF7DCFC82
:100BD800801B6428F7D9032002B0BDE8F0819BB9D7
:100BE8002B6823F480332B602B6823F480232B603D
:100BF800FFF7CAFC06462B689803B0D5FFF7C4FC7C
:100C0800801B6428F7D9E6E7B3F5A02F2B6803D13A
:100C180043F480232B60CEE723F480332B602B68CA
:100C280023F48023CAE76B4B9A6812F00C0F07D0A5
:100C38009A6802F00C02082A11D15B6859020ED496
:100C4800644B1A68920702D5E268012A82D11A68B1
:100C5800216922F0F80242EAC1021A6082E7E368D9
:100C68005C4DBBB12B6843F001032B60FFF78CFC94
:100C780006462B689F0707D52B68226923F0F803DF
:100C880043EAC2032B606DE7FFF77EFC801B022856
:100C9800EFD9A0E72B6823F001032B60FFF774FC62
:100CA80006462B6898077FF55DAFFFF76DFC801B44
:100CB8000228F6D98FE76369464D83B16B6F43F01D
:100CC80001036B67FFF760FC06466B6F9B073FF5F8
:100CD8004DAFFFF759FC801B0228F6D97BE76B6FF5
:100CE80023F001036B67FFF74FFC06466B6F9F0706
:100CF8007FF53CAFFFF748FC801B0228F6D96AE76E
:100D0800344B1A6CD00027D41A6C012642F080525A
:100D18001A641B6C03F080530193019B2E4D2B68C2
:100D2800D9051BD5A3682B4D012B27D12B6F43F079
:100D380001032B6741F28835FFF726FC254F8046D3
:100D48003B6F9B073FD5002E3FF414AF214A136C2D
:100D580023F0805313640DE70026DFE72B6843F484
:100D680080732B60FFF710FC07462B68DA05D9D48F
:100D7800FFF70AFCC01B6428F7D92CE7ABB92B6F27
:100D880041F2883823F001032B672B6F23F004030B
:100D98002B67FFF7F9FB07462B6F9807D3D5FFF7AB
:100DA800F3FBC01B4045F7D915E7052B2B6F03D183
:100DB80043F004032B67B9E723F001032B672B6F7C
:100DC80023F00403B5E7FFF7DFFBA0EB0800A84218
:100DD800B6D900E70038024000700040384DAB68D3
:100DE80003F00C03082B41D02B68022823F08073F2
:100DF8002B602ED1FFF7C8FB06462B68990122D439
:100E0800226AE3691343626A43F0005343EA821398
:100E1800E26A43EA0263A26A294C5208013A43EAA9
:100E280002436B602B6843F080732B60FFF7ACFBC9
:100E3800054623689A013FF5A1AEFFF7A5FB401BC5
:100E48000228F6D9C7E6FFF79FFB801B0228D4D9F2
:100E5800C1E6FFF799FB04462B689B017FF58EAE30
:100E6800FFF792FB001B0228F6D9B4E601286B684D
:100E78003FF4B2AE03F48002E1698A427FF46AAEBD
:100E880003F03F02216A8A427FF464AE47F6C072DB
:100E9800616A1A40B2EB811F7FF45CAEA26A03F468
:100EA80040315208013AB1EB024F7FF453AEE26A87
:100EB80003F07063B3EB026F14BF012000208BE6D0
:100EC80000380240134908B58B6803F00C03042B63
:100ED80003D0082B03D0104808BD104808BD4A6845
:100EE8004B68496802F03F0213F48003C1F388118C
:100EF8001ABF0A4800230848A1FB0001FFF780F940
:100F0800044B5B68C3F3014301335B00B0FBF3F0B0
:100F180008BD00BF003802400024F40040787D017D
:100F28002DE9F0410D46044610B90120BDE8F081D5
:100F3800464A136803F00F038B4229D321688F07B1
:100F480031D4C80744D4414A136803F00F039D42C3
:100F580068D32268510771D4130707D53C4A216921
:100F6800936823F4604343EAC1039360FFF7AAFF41
:100F7800374B384A9B68C3F30313D35CD840364BCE
:100F88001860364B1868FFF7C3FA0020BDE8F081F7
:100F9800136823F00F030B431360136803F00F0368
:100FA8009942C2D1CAE711F0040F294B03D09A68BD
:100FB80042F4E0529A600E0703D59A6842F4604200
:100FC8009A609A68A06822F0F00202439A60B8E733
:100FD80061681F4B01291A681CD112F4003FA4D084
:100FE8009A6841F288381A4E22F003020A439A603E
:100FF800FFF7CAFA0746B368626803F00C03B3EB5D
:10100800820FA0D0FFF7C0FAC01B4045F3D90320D8
:10101800BDE8F081022902D112F0007FDFE712F06B
:10102800020FDCE7136823F00F032B4313601368E8
:1010380003F00F039D427FF478AF8AE70449E06824
:101048008B6823F4E05303438B6085E7003C024040
:10105800003802401C1E00080CFC0320040000207D
:101068002DE9F7430268044612F001060BD0B84B8D
:10107800996821F400019960466B99683143B6FA82
:1010880086F67609996012F4002512D0B049E56B0E
:10109800D1F88C30B5F5801F23F4401308BF012622
:1010A80043EA050316BFB5FA85F500256D09C1F8B1
:1010B8008C30D10210D5A648216CD0F88C30B1F50F
:1010C800800F23F4400343EA0103C0F88C3000F09A
:1010D8008581002908BF012512F0807F18BF0126ED
:1010E800920631D59A4B9B4F1A6C42F080521A6483
:1010F8001B6C03F080530193019B3B6843F480739E
:101108003B60FFF741FA80463B68DB0540F16881A8
:101118008F4F3B6F13F4407340F06D81236B03F4E2
:101128004072B2F5407F8A4A40F08B81916823F083
:10113800704021F4F81120F4407001439160C3F32A
:101148000B03116F0B4313672368DA060CD5804A2B
:10115800D2F88C1021F08071C2F88C10D2F88C1063
:10116800A06B0143C2F88C105F0408D57849606E03
:10117800D1F8902022F440320243C1F8902018049C
:1011880008D57349A06ED1F8902022F4402202437A
:10119800C1F89020D90308D56D49E06ED1F89020A8
:1011A80022F440120243C1F890209A0308D56849F6
:1011B800206FD1F8902022F440020243C1F8902019
:1011C8005F0608D56249606CD1F8902022F00302CE
:1011D8000243C1F89020180608D55D49A06CD1F8E3
:1011E800902022F00C020243C1F89020D90508D5BE
:1011F8005749E06CD1F8902022F030020243C1F840
:1012080090209A0508D55249206DD1F8902022F0F7
:10121800C0020243C1F890205F0508D54C49606DB3
:10122800D1F8902022F440720243C1F890201805AA
:1012380008D54749A06DD1F8902022F440620243B6
:10124800C1F89020D90408D54149E06DD1F8902023
:1012580022F440520243C1F890209A0408D53C4930
:10126800206ED1F8902022F440420243C1F8902029
:101278005F0208D53649A06FD1F8902022F080622D
:101288000243C1F8902098020CD53148E16FD0F89C
:101298009020B1F1006F22F0006208BF01250A43D7
:1012A800C0F8902013F0080F18BF0125590308D57E
:1012B8002749606FD1F8902022F040720243C1F8AC
:1012C80090201A0209D52249D4F88000D1F890203C
:1012D80022F080520243C1F89020012E00F0B58020
:1012E800B3F1007F00F0B180012D75D1184D2B6846
:1012F80023F080532B60FFF747F906462B689F00C1
:1013080000F1278121680E0301D5E36B1BB1CD02E3
:1013180022D5236C03BB0E4AD2F88830D2F8880055
:1013280003F4403300F0E0400343606943EA80136C
:10133800A06943EA0063C2F88830D2F88C30A06A0A
:1013480023F4F853013843EA0023C2F88C3003E051
:101358000038024000700040880215D5E36FB3F1F1
:10136800006F11D1824AD2F88830D2F8880003F091
:10137800706300F0E0400343606943EA8013206A29
:1013880043EA0043C2F888300A0719D57849D1F8EA
:101398008820D1F8883002F0706203F44033134398
:1013A800626943EA8213E26943EA0273C1F888304A
:1013B800D1F88C30E26A23F440331343C1F88C30FF
:1013C8006B4C236843F080532360FFF7DDF8054634
:1013D80023689B0040F1C480002009E001267BE6D9
:1013E800FFF7D2F8A0EB080064287FF68DAE032043
:1013F80003B0BDE8F083226B02F4407293423FF4DD
:101408008DAE3B6F3A6F23F4407342F480323A67F3
:101418003A6F22F480323A673B673B6FD8077FF513
:101428007DAEFFF7B1F841F2883980463B6F9907E6
:101438003FF574AEFFF7A8F8A0EB08004845F5D9CA
:10144800D5E7916821F4F81178E6494E336823F01E
:1014580080633360FFF798F8074633681B0172D43E
:101468002268D70712D5636B83B9D6F88430D6F8CB
:10147800841003F4403301F070610B43616843EA60
:101488008113A16843EA0173C6F88430160303D5B3
:10149800E36BB3F5801F05D0D0021ED5236CB3F5DE
:1014A800800F1AD13249D1F88430D1F8840003F47E
:1014B800403300F0E0400343606843EA8013E0688B
:1014C80043EA0063C1F88430D1F88C00636A20F0E5
:1014D8001F00013B0343C1F88C30D10111D52449C9
:1014E800D1F88430D1F8840003F0706300F0E04054
:1014F8000343606843EA8013206943EA0043C1F864
:10150800843092010DD5236962681B0443EA821373
:10151800E26843EA0263A26843EA0273144AC2F823
:101528008430134E336843F080633360FFF72CF840
:10153800074633681B013FF5D7AEFFF725F8C01BF8
:101548006428F6D953E7FFF71FF8C01B642884D92D
:101558004DE7FFF719F8801B64287FF6CFAE46E702
:10156800FFF712F8401B64287FF632AF3FE700BF51
:101578000038024038B50D460446C8B190F82C3002
:1015880003F0FF021BB980F82D2000F05DFB022359
:10159800211D206884F82C3000F023F86268294661
:1015A800206800F05DF80123002084F82C3038BD55
:1015B800012038BD38B5044690F82C000D46C0B25D
:1015C80002280DD00223206884F82C3000F090F80F
:1015D8002B680020022B0CBF0523012384F82C3034
:1015E80038BD0B684A68012BD1F810C003682DE993
:1015F800F043D1F80890D1F80C804D698C69D1F886
:101608001CE00F6A4E6A14D023F4FF4323F07F03D3
:101618001A4342EA090242EA080242EA0C032B434F
:10162800234343EA0E033B43334303600020BDE8F2
:10163800F083416823F4F84321F4FF4143EA0E03A1
:1016480021F07F013B430A431E4342EA0902066038
:1016580042EA080242EA0C032B4323434360E5E7CE
:10166800012AD1F80CC0F0B591E808408F680D69DF
:101678004E6989691BD082680EF1FF3E013B0CF16F
:10168800FF3C02F07042013D013E013942EA0E1270
:101698001A437B1E42EA032343EA0C3343EA054319
:1016A80043EA065343EA016383600020F0BD84687F
:1016B8000EF1FF3EC268013B24F470040CF1FF3CBC
:1016C80002F07042013E24F47044013942EA0E12DD
:1016D80044EA0C341A437B1E44EA065642EA0322C3
:1016E8006B1E866042EA034343EA0163C360DCE79A
:1016F80091E80C0013B51343CA680446002043EA76
:1017080042238A680190013A43EA42130193019BFC
:10171800236102B010BD0000F0B5B5B03022002141
:10172800022407A8002500F061FB1422002102A86A
:1017380000F05CFB0021842213A800F057FB224B29
:10174800082701261A6C07A842F080521A641B6CFD
:1017580003F080530093009B1C4B1A6842F44042EC
:101768001A601B68079403F440430A960D9401938A
:10177800019B10230E950B93D8230F971093119468
:101788001294FFF7E3F9FFF7A9F90F2307210DEBEF
:10179800070002934FF4A053039405934FF480532A
:1017A80004950693FFF7BCFB602313A813971893BF
:1017B800052319941A934FF480331B951D961E9395
:1017C800FFF74EFC35B0F0BD003802400070004015
:1017D8002DE9F04F9BB00024FEF7BEFE0127FFF76E
:1017E8009BFF142200210DA800F000FBB94B082133
:1017F800B9481A6B4FF0080A4FF480554FF4006946
:1018080042F00102B54E4FF010084FF0030B1A6377
:101818001A6B02F001020392039A1A6B42F040021B
:101828001A631A6B02F040020492049A1A6B42F08F
:1018380008021A631A6B02F008020592059A1A6BDD
:1018480042F480621A631A6B02F480620692069A66
:101858001A6B42F020021A631A6B02F020020792F8
:10186800079A1A6B42F480721A631A6B02F4807238
:101878000892089A1A6B42F400721A631A6B02F4FF
:1018880000720992099A1A6B42F080021A631A6B65
:1018980002F080020A920A9A1A6B42F004021A6352
:1018A8001A6B02F004020B920B9A1A6B42F01002A8
:1018B8001A6300221B6B03F010030C930C9BFEF7BA
:1018C800CBFF00224FF480518548FEF7C5FF0DA9D4
:1018D80081480F941094CDF834A00E97FEF7CCFEF3
:1018E8000DA97F480D950F9410940E97FEF7C4FE2E
:1018F8000DA97B48CDF834900E940F94FEF7BCFEEA
:1019080021461C220DA800F071FA764B0722C6F872
:1019180020904FF002090DA93046B460F461756259
:10192800B4621092C6F81080CDF83490CDF838A083
:10193800CDF844B0CDF84890CDF84C906A4D86E883
:1019480018000423F360402373614FF4C073B3613C
:1019580005230F930193FFF70DFE342221460DEB6B
:10196800020000F043FA614A2846AC60EC602C6142
:1019780085F8344085F8354085F8364085E8140008
:1019880028226A610922AA613522EA610B222A62A9
:1019980040F215226A6240F21B12AA6240F2352216
:1019A800EA6240F21D122A63FEF7E2FFFF204FF4BD
:1019B800F0714FF48872019B12904FF480600E9181
:1019C800149028464A4D109217910DA91892224654
:1019D80015930D940F94139416948DF864408DF814
:1019E80065408DF86640CDF84490FFF72DF84FF626
:1019F800FF72294630460D94EC60AF6085E880019F
:101A0800FFF7D8FD3846FEF7C5FD4FF6FF722946A9
:101A18003046EC60C5F80090C5F80480AF60FFF769
:101A2800C9FD4FF6FF7229463046EC60C5F800B094
:101A38004FF47844C5F80480C5F808A0FFF7BAFD4C
:101A48004FF40C734FF6FF72294630460D9304236A
:101A5800AF6085E808010D9BEB60FFF7ABFD3268CE
:101A6800536943F4D06343EA09035361214B1A686D
:101A7800134602F5FF30002123F811400131B1F57A
:101A8800F07FF9D103F570738342F4D102F57F3208
:101A98001F20002123F811000131B1F5F07FF9D1A1
:101AA80003F570739A42F4D1012208210A480024F0
:101AB800FEF7D2FE0A4E01224FF4805108480E4F1D
:101AC800FEF7CAFE084D00224FF040410648FEF7D7
:101AD800E4FF13E00038024000280240F0FC032035
:101AE80000200240400100A048FC0320006801409B
:101AF80034FC032008FC0320080000204FF4FA708F
:101B0800FEF748FD4FF400613046FEF79FFE0128BE
:101B180001D184F0010414B10022394602E02246C2
:101B28004FF040412846FEF7B8FFE7E70A4B82B07E
:101B38001A6C42F080521A641A6C02F080520092B9
:101B4800009A5A6C42F480425A645B6C03F48043F6
:101B58000193019B02B070470038024070B514220F
:101B68008AB0044600210DEB020000F03FF922681C
:101B7800304B9A425BD103F5504302250E2605A946
:101B88005A6C00242C4842F080625A645A6C02F065
:101B980080620092009A1A6B42F480621A631A6B90
:101BA80002F480620192019A1A6B42F040021A63B1
:101BB8001A6B02F040020292029A1A6B42F4807287
:101BC8001A631A6B02F480720392039A1A6B42F436
:101BD80000721A631B6B069503F40073099604934D
:101BE800049BF7230593FEF747FD4FF4805305A99F
:101BF8001248059309230695099307940894FEF75C
:101C08003BFD4FF48C4305A90D48059306950794B1
:101C180008940996FEF730FD48F67C6305A9094843
:101C280005930695079408940996FEF725FD0AB0D2
:101C380070BD00BF00680140002802400018024043
:101C48000020024000240240F0B587B01422002191
:101C580001A800F0CBF82A4B1E68002E4DD10122B6
:101C6800022703250C241A6001A9264B26489A6BE3
:101C780042F001029A639B6B029703F001030495FB
:101C880005940093009B48F233130193FEF7F4FC8C
:101C98004CF2037301A91D4801930297039604951A
:101CA8000594FEF7E9FC4FF63F0301A91848019394
:101CB8000297039604950594FEF7DEFC282301A9F4
:101CC800144801930297039604950594FEF7D4FCF3
:101CD800082301A9104801930297039604950594D7
:101CE800FEF7CAFC4FF6807301A90C4801930297CE
:101CF800039604950594FEF7BFFC07B0F0BD00BF3E
:101D08002CFC03200038024000180240000C02405E
:101D180000140240001C024000080240001002406B
:101D28007047FEE7FEE7FEE7FEE77047704770473B
:101D3800FEF71EBC054BD3F8882042F47002C3F8A6
:101D480088204FF000629A60704700BF00ED00E005
:101D5800DFF834D0002103E00C4B5B5843500431CA
:101D68000B480C4B42189A42F6D30B4A02E0002368
:101D780042F8043B094B9A42F9D3FFF7DBFF00F026
:101D880011F8FFF725FD7047000005203C1E0008EC
:101D98000000002010FC032010FC032028FD032075
:101DA800FEE7000070B50D4E0D4CA41BA4100025D5
:101DB800A54209D10B4E0C4C00F020F8A41BA4102E
:101DC8000025A54205D170BD56F825309847013544
:101DD800EEE756F8253098470135F2E7341E00083B
:101DE800341E0008341E0008381E0008024403464A
:101DF800934200D1704703F8011BF9E7F8B500BF1B
:101E0800F8BC08BC9E467047F8B500BFF8BC08BCD3
:041E18009E4670472B
:101E1C00000000000000000001020304060708098E
:081E2C000CE4FF7F010000003F
:041E3400ED010008B4
:041E3800C9010008D4
:101E3C000100000010000000411041080108410899
:101E4C004110821082108210831882188210421066
:101E5C0042104210421082108210821083108310A4
:101E6C00831083108318C31883188318831083106E
:101E7C0082108210831083108210821082108210C4
:101E8C008310831083108310821082108208420802
:101E9C0042088210831083108210820804218A5217
:101EAC004D730C738A62495A495A4952084A863111
:101EBC00C32082108210C310C420C418C418C418C4
:101ECC00C318C31883188310C318C318C318C318B6
:101EDC00C418C41804210521452946294529052182
:101EEC00042104210421C4180421052106294629B2
:101EFC00462946294629452105210521052105218B
:101F0C000521052105210521452945294529462974
:101F1C0046294629462986298631863186318631DD
:101F2C008731873187318731463186318631873128
:101F3C0087318731863186318731873187318731D7
:101F4C0087318731C731C7398731C731C739C7396D
:101F5C00C839C839C839C839C839C839C839C8396D
:101F6C00C841084208420842C839C839C841084229
:101F7C0009420942084208420942094209420942FF
:101F8C000942094209420942494A494A494A494ACD
:101F9C00494A494A494A494A494A494A494A494A9D
:101FAC00494A494A494A494A494A494A4A4A4A4A8B
:101FBC004A4A4A4A4A4A494A4A4A4A4A4A4A8A4A36
:101FCC00CA4ACA52C94AC94A0A534A5B8B634B6311
:101FDC00C9524742884ACA524D6BCE7B4D6B8D6BB2
:101FEC002E7CCD734B634A5B4B632E742E7C8D6BB6
:101FFC00CA52CA520B5B4D630C534D5BCE6B6F7464
:10200C006F74CD6B8A5BCC636D746D742C6C8C6B44
:10201C002E74B084749D37BE79C6BAC67AC639BEE2
:10202C007AC6FBD6BBCE38B63495727CB27C35956D
:10203C00B7A539B67ABE39B63385F17CF17C3285D9
:10204C007285718D71857085B18DF39575A6B8AE5D
:10205C0039BF3BBFFAB6BAB6BBBEFCC6FCC6FCCE9B
:10206C003CD73CDFFBD6B9D6F9D6B8D677CEF5C57A
:10207C00B4BD72BD72BD73BD72B572B572B572BDB1
:10208C0072BD32B5F1B4F1ACB1ACB0A46F9CB0A4DC
:10209C00F0AC6EA48C93C8728A6A895A0C6B6F8CE4
:1020AC00B6CDBAFEB7FD72F431EC72F4B5EDB8F6FC
:1020BC007BEF3AE7FAE6FBEE3BFF3BFFB9EEB5CD23
:1020CC0071A44E830C730C6BCB62CC62CC62CC6271
:1020DC00CB5A8A524A52494A494A494A4A524A5266
:1020EC004A524A524A524A524A524A524A524A5204
:1020FC004A524A524A528A5285822BB4EFCC31CD85
:10210C0032C52FA40B7B495A49524A528B528B52DF
:10211C004A524A4A494A094A49524A524A5249522F
:10212C00094A08420842494A0942094208420842FF
:10213C00084A084A095249524A52084AC741084AB1
:10214C008A5A8B62495AC851C749C749C74908526C
:10215C0008524952495208528A62495A495A495AB4
:10216C00495A085208520852085A485A085A0752F3
:10217C0008528962CB720C7B89620852C74907529C
:10218C00485A495A49628A62CB6ACB6ACB6ACB6A93
:10219C00CB6A0C73CB6A896289628A6ACB6A0C7BC4
:1021AC008E83CF8BCF8B8E830C730C73CC6ACC6AE3
:1021BC000C734D7B8E838F83308C308C308CD08B1A
:1021CC00CF838E7B4D730D730D734D734D734D73A8
:1021DC004D734D730D730C6B0C6B0C6B0C6B0C6BA0
:1021EC000C6B0D6B4E738E7B4E738E734E6B4D6BF7
:1021FC000D630D630D634D6B318CCF830D6B8A5A60
:10220C00084A873945310429C320C3208318821812
:10221C00421041104110411041104110421042082F
:10222C004108410841084108421082108210831075
:10223C00821082104208420842084208420882106A
:10224C0082108310821082108210821082108210F1
:10225C008210821082108310C310820841088210F1
:10226C0041100010401081184118811882188218F2
:10227C0082188310C31804198310831083108310E1
:10228C0083108310831083188310831083108310A2
:10229C0083108310831082104210831082108318D5
:1022AC00C318042104210529452946294629462914
:1022BC00462946294629452945294529452945299F
:1022CC004529452945294529052105214521452132
:1022DC00452946294629462946294629462946297B
:1022EC0046294629462946294629462986318731D9
:1022FC008731873187318731873187318731873112
:10230C008731C731C731C731C731C731C731C73939
:10231C00C739C839C839C839C839C839C839C841A2
:10232C00C841084208420842C839C841084209421B
:10233C000942094209420942094209420942094239
:10234C00094209420942094A494A494A494A494A01
:10235C00494A494A494A494A494A494A494A494AD9
:10236C00494A494A494A494A494A494A4A4A4A4AC7
:10237C004A4A4A4A4A4A4A4A4A4A4A4A4A4A8A4A71
:10238C00CA52CA520A530A530A530A534B5B8C6300
:10239C008C630A5B884A48424D6B708C718CB18C93
:1023AC00B18CCE7B4B630A5B4B5B4B63CD6B2F7C51
:1023BC002E748D634C63CE6BCF6B8E634C5B4C5B1E
:1023CC008C63CC634953084B49538A5B8B632D74E4
:1023DC00B18C739DB5AD37B67AC6BBCEFCD6FBD6E9
:1023EC00BAC679BE39BE79BEB7ADB6A5F8ADBABE20
:1023FC00FCCE7EDFBFDF3DCF3BC736A632853285B4
:10240C007285718570852F7D2F7D7185B38DF595C6
:10241C0077A6FAB6FBBE3CBF3DC7FCC6FCCEFCCED5
:10242C003CD7FBD6FAD6B9CEB8CE78CE77CE76CE10
:10243C0036D636D676DE76DEB6DEB6DEB7DEB7E676
:10244C00B7E677DE36DE36D6F5CDF6D5F5CD36D613
:10245C0035D6B4CD72C5B0B44D830C738D73B19CAD
:10246C0037DEFBFEB7FD31ECD0E3B2FCF6F5B9F686
:10247C003AE73BEF7DFFBEFF7CFF37DEB1AC4D830F
:10248C000C73CC72CB6A8B62CC62CC628B5A4A5284
:10249C00494A494A4A528A528A52494A494A494AFD
:1024AC004A4A4A528A528A52094A4A524A528B5AC8
:1024BC008B5A8A52494A084AC79230DD75F6B3DD09
:1024CC00CDA3886A075AC8494A5A4A524A4A494AC5
:1024DC00094A094A094A094A09520952094A4A52FF
:1024EC004A524A520842C739C739C8390842094AC0
:1024FC00494A49520952084A8639084A8A5A8A5A1C
:10250C004952084AC849C849C749C7490852495A93
:10251C008A628B62CB6ACB6A495A495A495A495AE0
:10252C00495A495A49628A6289628A62CA6ACB6A82
:10253C00CB72CB728A62085A8A62496289628A6A51
:10254C00CB6ACB6ACB6A0B73CB6ACB6ACB6A8A6ACF
:10255C00CB6A0C734D838E838E838E8B8E834D7BD7
:10256C000C730C73CB6A8A62CB6A0C734D7B8E83B3
:10257C008F8B8F8BCF8BCF8B4D734D734D734D7367
:10258C004E7B4E7B4D730D6BCB62CB62CB628A5A0A
:10259C008A5A8A5A8A5A8A5ACB620C6B4D6B4D6B8B
:1025AC000C6BCB5A8A524A524A528A524A524A4A63
:1025BC004A4A8B52CC5A0D6338CE38CE38CE38CEF0
:1025CC0078CE79D679D679D679D678CE78CE38CEEB
:1025DC0038CE37C637C637C6F7BDB6BDB6B575AD3E
:1025EC0034ADF3A4B29CB29471947194708C2F841A
:1025FC008E730C6BCA5A8952C741C639863144292D
:10260C000321821841104108000000000000000066
:10261C00000000000000000000000000410841081C
:10262C00400800104010401041184010401041105C
:10263C008110821082104108821882108210421080
:10264C0042104210821082104108421082108210F7
:10265C0082108210821082108310831083188318CA
:10266C0082188218C318C418052946290621052189
:10267C0005210521452105210521052105210521DE
:10268C00052105210521052105210521052105210E
:10269C00052145214529452946294629462946290A
:1026AC00462946294629462946294631863187310D
:1026BC00873187318731873187318731C731C739C6
:1026CC00C739C739C7318731C739C739C731C7315E
:1026DC00C739C839C839C839C839C839C841084296
:1026EC00084208420842C8410842094209420942CC
:1026FC000942094209420942094A0942094209426E
:10270C000942094A494A494A494A494A494A494AAD
:10271C00494A494A494A494A494A494A494A494A15
:10272C00494A494A494A494A4A4A4A4A494A494A03
:10273C004A4A4A4A4A4A4A4A4A4A4A4A4A4A8A4AAD
:10274C00CB52CB520B5B0B5BCA52CA52CA520A5BBE
:10275C004B5B4B5B0A5B0A5BCA528D6B2F7CB18C5B
:10276C00339D339DF29470848D6B8D6B8D634C5BBC
:10277C004C638E6B8E6B8E6B8E6B0C5B8A4A8842B5
:10278C000A53CD6B6E7CF08C6E74AF7CB084318D43
:10279C00749DB4A5749D749DB6A539BEFBD63CDF63
:1027AC003CDFFBD6FACEB9C6FBCEBACEBAC679BEE2
:1027BC00BBC63CD73CCFBABE75A6728DEF7C307DC4
:1027CC003085AD6C8A53C73A0943CD5BB1747595AE
:1027DC0039AEBBBEBCBE7BB67695F584B48436955B
:1027EC0039B6FBD63DDF3DE7FBDEFADEBAD6FADEC4
:1027FC00FAE6FBEEFAEEFAEEFAEEFAEEFAEEFAEE94
:10280C00FAEEF9EEB9E6B9E6B9E6B9E6B8E6B8E635
:10281C00B7E635E6F4DDB2D52FD5EED470C5F3D5D9
:10282C00F7EEF9F6B5DD31B4B2BCB6DD3BEFFEFF29
:10283C00FFFFFFFFBFFFFCF6B5CDB1AC0C838A6A7E
:10284C008A6ACB72CC72CC6A4A5A4A5A0952094AE1
:10285C00094A094A09524952094A495249524A52AB
:10286C004A524A52094A094A8B5A8B5A4A5249527D
:10287C0009520952495249524B93F1BC31BD8D8BCF
:10288C00485AC749085249524A524A52094A094AB7
:10289C00094A094A494A49528A52494A094A08424C
:1028AC000942094A08420842084A094A494A094A5F
:1028BC00084A084AC741C741495A495A4952084A25
:1028CC00C749C849095A8A6249628A628B6A8B6A0B
:1028DC008A62495A495A495A495A8A628A628A62B0
:1028EC004962495A0852085A8A62CB720C73CB72ED
:1028FC008A6249624A628A6249628A6A0C7B4D83A7
:10290C004D830C7BCB72CB6A8A6ACB6ACB6A0C7315
:10291C008E83CF8BCF8B8E838E834D7BCB6A8A62DB
:10292C008A620C738E83CF8B8E7B8E838F838E8388
:10293C004E7B4E7B4E7B8E7B8F834E73CC6A8B6231
:10294C008B628B628B5A4A5ACB62CC6A0D6B4D737D
:10295C004E7B8E7B4E730D6BCB62CB5A8B5A8A524D
:10296C008A528A528B5ACB5A8A528B5ACC620D633A
:10297C000D63CC5ACC5ACC5A38CE38CE38CE38CE51
:10298C0038CE37C6F7C5F7C5F7C5F7C537C637C64E
:10299C0037C637C637C637C638C6F7C5F7C5F7C505
:1029AC0038C638C638C6F7C538C638CE78CE79CED4
:1029BC0079CE79CE78CE38CE79D679CE79CE79CE0D
:1029CC0078CE38CE38CE38C638CE38CE38C6F7C5E5
:1029DC00F6BDB6B575B575B5F39CB294B294B29418
:1029EC00B29CB19C7094CF8BCE838D7B4C730C6B53
:1029FC00CB62CB5A8A52494A0842C739863145299B
:102A0C00C3208210410841080000000000000000B3
:102A1C00000000000000000800000000000000089A
:102A2C0041088210C3180521042105210521C52068
:102A3C00C418052105210521052105210521452164
:102A4C0045214521452945294521452105210521BA
:102A5C000521452145294529462946294629462946
:102A6C0086298631863186318731873187318731A6
:102A7C00873187318731873187318731C739C739FA
:102A8C00C739C739C739C731C839C839C739C73940
:102A9C00C739C839C839083AC841084208420842FF
:102AAC00084208420842C841094209420942094207
:102ABC00094A094A094A0942494A494A094A094AFA
:102ACC00094A494A494A494A494A494A494A4A4AA1
:102ADC004A4A4A4A494A494A494A494A494A494A50
:102AEC00494A494A494A494A4A4A4A4A494A494A40
:102AFC00494A4A4A4A4A4A4A4A4A4A4A4A4A4A4A2B
:102B0C008A4ACA520A530B5BCA520A5B0B5B4B5B79
:102B1C000A5BC952C952894A894ACA520B5B0B5B80
:102B2C000A5B0B5B4C638C637084F2943295F29469
:102B3C00F294B28C7184307C0C5B4D63CF738D6BD3
:102B4C00C94A884209532D6C318DF0842E748C63E4
:102B5C00CA4A483A07320732C731CB4ACF73349D41
:102B6C0079C67DE7FFF7FFEF7DDF7DDF3CD7FBCE3E
:102B7C007DD77EDFFCCE7ABE728DF07CEF74EF7C5D
:102B8C002F7D2F7DEE74AE6CF07C728D738DB595B0
:102B9C00F8A5F8A57795F684B79577957695769DF3
:102BAC00769D76A576A5B6ADB6ADB5B5B5B5B5B5CC
:102BBC0074B5F2AC2F948D838D83CD83CE8B2F94F3
:102BCC006F9CB0A4F2ACF2AC74BDB5C5F6CD77DE9B
:102BDC00B8EEF8F6F8F6B6F637FFF6FE37FF37FF25
:102BEC0079FFBBFF7CFF3CFF3CFF3DFFBEFFBEFF00
:102BFC00BDF7BEF7FCF6B8D570A430A4CF9B8E936E
:102C0C004D83CB724A62095A4A5A4A5A4A524A521C
:102C1C004A524A52495249524952094A094A094AA6
:102C2C00094A4A528B5A8B5A4A524A524952495271
:102C3C0049524A524A5A4A5AC97A0A838872C65920
:102C4C00C651495A495A0952094A094A0942094A7C
:102C5C00494A4A524A524A52094A094A094A0942BD
:102C6C00C839C839C8410842084A494A494A084A39
:102C7C00C741C741084A4952495A49520852095258
:102C8C00495A4A624A62495ACB6A8A6A8A628A6299
:102C9C008A6ACB6A8A628A628A628A62CB6ACB6AE5
:102CAC008A628A62CB6A0C7B0C730C73CB6A8A6265
:102CBC008A628A6ACB6ACB720C73CC72CB6A8A6AD0
:102CCC008A628A6ACB720C7B4D7B4D838E834D7BE3
:102CDC000C73CB6A8A62495A495A8A62CB6A4D7B19
:102CEC008E83CF8BCF8BCF83D08BCF8B8E834D7B33
:102CFC00CC6A8B628A5A8A5A4A524A528A5ACC6293
:102D0C000D6B4D730D730D6B0C6BCC628B628A5A11
:102D1C008B5A8B628A5A4A528A5A8A5ACB5ACB623B
:102D2C00CB62CB62CC62CC620D6B0D630D63CC625B
:102D3C00CC5A8B528B52CC5AF7C5F7C5F6C5F6C593
:102D4C00F7C5F7C537C637C6F7C5F7C537C637C693
:102D5C0037CE37CE37C637C638CE37C637C637C666
:102D6C0037CE37CE37C637C6F6C5F6C5F6C5F7C566
:102D7C0037C637C637C637C6F6CDF6C5F6C5F6C55F
:102D8C00F6C5F6C5F6C5F6C5F6C5F6C5F6C5F6C55F
:102D9C00F6C5F6C5F6C5F6C537CEF7C5F6C5F6C504
:102DAC00F6C5F6C5F6C5F6C5F6C5F6C5F6C5F6C53F
:102DBC00F7C537C6F7C5F7C537C637C6F7C5F7C564
:102DCC00F6C5F6C5B6BDB6BDB5BD75B534ADF2A488
:102DDC00B19C719470947094308430842F84CF7B28
:102DEC004C6B484A04298210C41805210521052181
:102DFC0005210621452945294529452946294629E4
:102E0C004629462946294629462946294529452940
:102E1C00462946294629462946294629462946292E
:102E2C00462986298629862987318731873187313A
:102E3C008731873187318731C739C739C739C731AE
:102E4C00C731C739C739C839C839C839C839C83979
:102E5C00C839C839083A08420842084208420842B0
:102E6C000842084208420842094209420942094202
:102E7C000942094209420942494A494A094A094A4E
:102E8C00494A494A494A494A494A494A494A4A4A9D
:102E9C004A4A4A4A494A494A494A494A494A494A8C
:102EAC00494A494A494A494A4A4A4A4A494A494A7C
:102EBC00494A4A4A4A4A4A4A4A4A4A4A4A4A4A4A67
:102ECC004A4A8A4A8A52CB52CA52CA52CA520A5BDC
:102EDC000A5B0A5BC952C95248428842C952CA525B
:102EEC00894A894ACA4A0B53CB520C5B307CB6AD2B
:102EFC0038BE75A5F394349D74ADB5ADB5AD708485
:102F0C00894A0632884A8C6BB084F18C3295F28CEB
:102F1C002E744C5BCA4A8942483A083A49420B53D0
:102F2C008D6BCE73307C7184F294B28C707C307C5F
:102F3C00B28C339534953495718D718D3085EF7CD1
:102F4C00AF7CF084328D328D328D7595B6A539B645
:102F5C00FCCEFDCEBCC67CBEFCAEFCB6FCB6BBB695
:102F6C00BAAEBBB6FBBE3CC77DCF3CCFFBC6BABE30
:102F7C0037AE34952F6C0C5B8A5A8B628B62CB62AA
:102F8C008B628B628A628A62495A495A8962C97217
:102F9C008C8BF0BC34E637FF38F779F77AEFBAF759
:102FAC00BBF7BBF7BCFFBBFFBCFFBCFFBCFF7BFF91
:102FBC00F9FE78F674E530BC8E934E8B0C7B8B72DD
:102FCC004A624A624A628B6A8B6A4B624A624A6202
:102FDC004A5A495A495A095A095A095209524952E4
:102FEC004A524A524A52494A094A094A094A4A52D9
:102FFC004A5A8B62CC6ACC6A8A5A49524952495213
:10300C0049524A52094A094AC841C8410842094A28
:10301C00494A4952494A084AC839083A0842C841FB
:10302C00C739C841084A09528A5A0952C749C74187
:10303C00084A49524952084A0852495A4A628A6A0D
:10304C00CB6ACB6ACB6ACB6A4A628A6ACB6ACB6A96
:10305C00CB6ACB6ACB6ACB6A8A628A628A628A62E0
:10306C008A628A6ACB6A0C73CB6ACB6ACB6A0C73A2
:10307C004D7B4D7B0C7BCC72CB728B6A8A6A8A6AD5
:10308C00CB720C7B4D7B4D838E834D7BCB6A8A62DE
:10309C00495A8A62CB6A4D7BCF8B309471943194B0
:1030AC00CF834D73CB6ACB62CB628A5A4952495259
:1030BC008A5ACC620D6B4E734E734E730D6BCC6291
:1030CC008B5A4A524A524A524A528A528A524A524B
:1030DC008A528B5ACB5ACB5ACB5ACB5ACB5ACC5A44
:1030EC00CC5ACC5ACC5ACC5ACB5ACB5ACC5A0C635D
:1030FC000D63CC5ACC5ACC5A37C637C637C637C6EE
:10310C0037C637C637C637C6F7C537C637C637C60C
:10311C0037CE37C637C637C6F7C5F7C5F7C537C676
:10312C0037C637C637C637C638CE38CE37CE37CE89
:10313C0037C637C6F7C5F7C537CE37CEF6CDF6CD81
:10314C00F6CDF6C5F6C5F6C5F6C5F6C5F6C5F6C593
:10315C00B5C5B5BDB5BDB5BDB6BDB6BDB5BDB6BDC8
:10316C00B5BDB5BDB4BDB5BDB4BDB5BDB5B574B516
:10317C0074B574B574B574B534AD74B574B574B543
:10318C0074B574B534AD34AD33AD33A5F2A4F2A43B
:10319C00F2A4F2A4F2A4F2A4B29471947194708C7F
:1031AC00CF83CB62C639C418C420052146294629D1
:1031BC000621462945210521052105210521452109
:1031CC00452945294529452946294629462946297F
:1031DC00462946294629862946294629462946292B
:1031EC008629862986318631863187318731873128
:1031FC00873187318739C739C839C839C739C73199
:10320C00C731C739C839C839C839C839C839C839B4
:10321C00C839083A08420842C841084208420842E4
:10322C00094208420842084209420942094209423D
:10323C000942094209420942094A094A094A094A0A
:10324C00094A494A494A494A494A494A494A494A1A
:10325C00494A494A494A494A494A494A494A494ACA
:10326C00494A494A494A494A4A4A4A4A494A494AB8
:10327C004A4A4A4A4A4A4A4A4A4A4A4A4A4A4A4AA2
:10328C00494A4A4A8A4A8A4A494ACA520C638C6B4E
:10329C008C6B4B63C952474A4842063A473A4842FC
:1032AC008842894A894ACB524C630C5B4D637184CA
:1032BC00349D349D359DB6A533A5B5ADF6B574A535
:1032CC0070842E7C2E7C6E7C2E746E7C6F7C2E6CAF
:1032DC000B538942483A483A894248424842894A03
:1032EC00CB520B5B0B5B0B5B0C5B4C5B0B53CA4A03
:1032FC008942483A493A8A426D6C30857295718D93
:10330C0030853185F0846F746F74338DF7A57ABE78
:10331C003DD73ED7BDC6BCC63DB73DBF3DBF3DBF8B
:10332C003CBFFCBEBAAE38A6B274D0630C4B8A3A22
:10333C00893A8A42CB4ACB528B5A8B628B628B6214
:10334C008B628A5A8A5A8A5A8A628962896288622C
:10335C00C872CB9330C5B5F6BBFFBBFF79E739E735
:10336C007AEF7AEF3AF7F9F677E6F5D573C5F1BC53
:10337C00B0B470B42FB48EAB0C83CC7A8A724A6A18
:10338C004A6A4A6A4A6A4A6A4B624B624A624A62AF
:10339C004A5A4A5A495A495A095A4A5A8B624A5AFB
:1033AC004A52094A094A094A4A528B5ACC620D6B55
:1033BC000D6BCC6A8B624A5A4952084A084A084A31
:1033CC00084AC849C841094A094A094A094A094AE6
:1033DC00494A094A084A08420942083AC739C739D2
:1033EC00C841084A094A0952C849C849084A4952B9
:1033FC008A5ACA628A5A495A4A624A624A628A623A
:10340C008B6ACB6A0C730C734D7B0C73CB6A495A69
:10341C0008520852495A8A620C730C730C730C7361
:10342C000C730C73CB72CB6A8A6ACB724D7B4D7B5F
:10343C000C738A6A8A628B6A8A6ACB720C734D7BB4
:10344C004E838E834D7BCC72495A495A4962CB6A62
:10345C000C734D7B4D7B0C734D730C73CC6A8B6270
:10346C008A5A4952495A8A5A8A5A8A5A8A5A8A5ABA
:10347C008B5A8A52094AC8410842494A8A528B5A85
:10348C008B5A8A5A8B5A8B5A8A5ACB5ACB628B5A82
:10349C008B5A0C6B8E7BD0830C63CB5A8B528A521B
:1034AC008A52CB5ACC5ACC5A8B528B528B52CC5A06
:1034BC00CC5A8B528B528B52F6C537C637CE37CE81
:1034CC0037CE37CE37C637C637C637C637C637CEF0
:1034DC0037CE37CE37CE37CE37CE37CE37CE37CEB8
:1034EC0037CE37CE37CE37CEF6C5F6C5F6C5F6C5D0
:1034FC0037CE37CE37CE37CEF6C5F6C5F6C5F6C5C0
:10350C00F6CDF6CDF6C5F6C5F6C5F6C5F6C5F6CDBF
:10351C00F6CDF6C5F6C5F6C5F6C5B6C5B5BDB5BD91
:10352C00B5BDB5BDB5BDB5BDB4BDB4BDB4BDB4B50B
:10353C0074B574B574B574B574B574B574B574B537
:10354C0073B533AD33ADF2AC33AD33AD33ADF2ACAB
:10355C00F2A4F2A4F2A4B1A4B29CB19471947194AB
:10356C00308C0C6B86398110C4180521462906292C
:10357C000521052105210521052105214521452987
:10358C0045294629462946294629462946294629B8
:10359C0046294629862986318631863186318631FF
:1035AC008631873187318731873187318731873150
:1035BC0087318731C739C739C839C739C739C7398E
:1035CC00C739C739C739C739C839C839C839C839EB
:1035DC00C839083A083A0842C839C8410842084272
:1035EC000942094209420942094209420942094277
:1035FC000942094209420942094209420942094267
:10360C000942094A094A494A494A494A494A494ADE
:10361C00494A494A494A494A494A494A494A494A06
:10362C00494A494A494A494A494A494A4A4A4A4AF4
:10363C004A4A4A4A4A4A4A4A4A4A4A4A4A4A4A4ADE
:10364C004A4A4A4A4A4A4A4A09428A4ACB520B5B7C
:10365C004C6B8D6BCD738C6B0A5BC94A884A473AAD
:10366C00073A083A89420C5B8E6B4C5B8A4A48429B
:10367C00894A0B5B4C5B0B534C634C6BCD738C6B63
:10368C004B638D6BCE73CE73CE73CE73CE738D6B4B
:10369C000B53894A89424842894A894A48424842DE
:1036AC00CA524C630C638A52494A0C633084B28C04
:1036BC00307C0B5B483A083AC9422E6C7395B59D29
:1036CC007495F2848D63483A0B53B284F7B5BAC63D
:1036DC00FBD679C6349D7284D07390738F730E6B46
:1036EC00CD5A8C5A4B524B528B5A4B524A524A52CD
:1036FC004B5A4B5A4B5A0A5A4A524A524A524A52FB
:10370C004A524A528B528B52CB5A8A5A895A8862E5
:10371C00876A4A8BEFBCB6F6BAFFFCFFBBFFBBFF58
:10372C007BFFB8EEB4D5B1BC70B42FB4CEABCFAB7D
:10373C00CFA38E9B0C838B728B728A6A4A6A4A6AFD
:10374C004A6A4B6A8B628B624A624B624B624B6277
:10375C004A624A624A6A4A6A8B6A8B6A4A620952AC
:10376C00094A494A8B5A0D63CC62CC5A8B5A8B5AF4
:10377C008A5A4A5A4A5A09524A4AC939094209428A
:10378C000942094AC8410842094A094A494A494A70
:10379C00494A094A094A0942C839C8390842094AFA
:1037AC00094A094A084AC849C851495A8B6A8B6A5E
:1037BC00495A495A495A8A62CB6ACB6ACB720C7BFA
:1037CC000D7B0C7BCB6A8A62C851C7510852496287
:1037DC00CB6A0C7B0C73CB6A0C730C730C73CB6ABB
:1037EC00CB6A0C734D7B4D7B4A6249624A628A629A
:1037FC008A628A62CB6A0C734D834D7B0C738B6A25
:10380C008A6ACB6ACB6ACB6A0C730C734D734D739B
:10381C000C73CB6ACB62CB62495249528B5A0C6BFC
:10382C000C6BCB5A494A0842494A494A094A494A07
:10383C00494A494A494A494A494A4A4A4A524A4AD9
:10384C00494A4A4A8A528B52CC620D634D6B0C63C7
:10385C00CB5A8A524A524A4A8B52CB5ACC5A0C6394
:10386C000D630C5B8B524A4A8B524A4A494A8A5224
:10387C00CC5A0D634E73D07B37CE37CE37C637C696
:10388C0037C637C637CE37CE37C637C637C637C634
:10389C0037C637C637C637C637CE37CE37CE37CE14
:1038AC0037CE37CE37CE37CE37CE37CE37CE37C6EC
:1038BC00F6C5F6C5F6C5F6C5F6CDF6CDF6CDF6CD04
:1038CC0036CE36CE36CEF6CDF6C5F6C5F6C5F6C531
:1038DC00F6C5F6C5B5C5B5C5B5BDB6C5F6C5B5C550
:1038EC00B5BDB5BDB5BDB5BDF5BDB5BDB4BD74B546
:1038FC0074B574B574B574B574B574B573B533B5B6
:10390C0033B533AD33AD33AD33AD33AD32ADF2ACE6
:10391C00F2A4F2A4F2A4B1A4F2A4B29C7194719496
:10392C0070948D7B084AC320C318052106290629EB
:10393C0005210521052105210521052145214529C3
:10394C0045294629462946294529452946294629F6
:10395C00462946298629863186318631863186313B
:10396C00863186318631863187318731873187318F
:10397C008731873187318739C739C739C839C83951
:10398C00C839C839C739C731C839C839C839C8392D
:10399C00C839C839C839C839C839C839C8410842C2
:1039AC0009420942094209420942094209420942B3
:1039BC00094209420942094A09420942094209429B
:1039CC0009420942094A094A494A494A494A494A63
:1039DC00494A494A494A494A494A494A494A494A43
:1039EC00494A494A494A494A494A494A4A4A4A4A31
:1039FC004A4A4A4A4A4A494A494A4A4A4A4A4A4A1D
:103A0C004A4A4A4A4A4A4A4A4A4A8A4A8A52CB5AF1
:103A1C004C63CD73CD7BCD732E742D742E742E749C
:103A2C002E74CE6B4C5B0C5BCB4A483AC731484288
:103A3C008A4ACA520B530B5B484AC9528D6BCE73E0
:103A4C004C634B634C634C638D634C634D638D6B68
:103A5C008D6BCE6B2F74CE738D6BCA52484248421D
:103A6C0089520C638D6BCE73307CF294B6ADF7B586
:103A7C00349DCF730C5B0B538C5BB0747395749546
:103A8C007495749DF38C2F74B184F7ADBAC6BAC615
:103A9C00BACEF7B5B2844E638C524B4A4A4A4A4A64
:103AAC004B4A4B524A4A4A520A4A0A4A0A4A0A5250
:103ABC004A524A520A5209524A524A524A524A529B
:103ACC004A524A524A4A494A4A4A084A4852475A6A
:103ADC004762087B2CA4F2DD79F779F735D672BDF5
:103AEC00F0B46FA42FA4CEA3CDA38D9B4C930C93B9
:103AFC000C8BCC82CB7ACC7A8B728B6A4A6A8A6AB0
:103B0C008B6A8B6A4A624A5A4B624B624A624A62BD
:103B1C004A624A628B6A8B6A4A624A624B62CC6A1C
:103B2C000D6BCC624A52C841094A0942C841C8418E
:103B3C00C849094A095209524B4A4A4A4A4A094A4F
:103B4C00094A4A52094A094A084A094A494A094A49
:103B5C00084AC841C841C841C739083A0942C84156
:103B6C0087398741084A4A5ACC6A4A620852495AEC
:103B7C008A62CB6A8A62495A8A6A8B6ACB6A4A62BF
:103B8C00085AC7510852095ACB6ACC720C730C7381
:103B9C000C73CB6ACB6ACB6ACB6A0C730C73CB6A93
:103BAC00495A495A4A5A8A62CB6A8A628A628B6A31
:103BBC008B6A8A628A628A628A6ACB6ACB6ACB6AAD
:103BCC00CB6A0C730C730C738A62495A495A8A5A21
:103BDC00CB628A628A5A895A495249524952094AD5
:103BEC000842C741C739084208420842C841C84187
:103BFC0008420942494A8A528B528B5ACB5ACC5AA8
:103C0C00CB5A8B5A8B5A8B5A4A4A4A4A494A494A86
:103C1C004A4A8A524A52494A494A49420942494AFD
:103C2C008A52CC5A0C630C638B528B5A4D6BCF7BE4
:103C3C00D07B4E6B8B5A4B5237C637C637C637C6FE
:103C4C0037C637C637C637C637C637C637C637C680
:103C5C0037C637C637C637C637CE37CE37CE37CE50
:103C6C0037CE37CE37CE37CE37CE37CE37CE37CE20
:103C7C0037C637C637C637C636CE36CE36CE36CE34
:103C8C0036CEF6C5F6C5F6C5F6C5F6C5F6C5F6C507
:103C9C00F6C5F6C5F6C5F6C5F6C5B5C5F5C5B5C5C3
:103CAC00B5BDB5BDB5BDB5BDB4BDB4BDB4BDB4BD7C
:103CBC00B4BDB4BD74BD74BD74BD74B573B573B50A
:103CCC0073B533B533B533B532AD32ADF2ACF2AC0E
:103CDC00F2ACF2A4F1A4B1A4B19CB19CB0947094D8
:103CEC0070942F8CCA5A0429C318042146294629DA
:103CFC0046294629052105210521052105214521B6
:103D0C00452145294529452946294629462946293B
:103D1C0046294629462946294629462946298629DF
:103D2C0086318631873187318631873187318731CA
:103D3C00873187318739C739C739C739C739C73947
:103D4C00C739C739C739C839C839C839C839C83962
:103D5C00C839C839C839C839C841C84108420842AD
:103D6C0008420942094209420942094208420942F1
:103D7C000942494A094A094209420942094209428F
:103D8C0009420942094A094A494A494A494A494A9F
:103D9C00494A494A494A494A4A4A4A4A4A4A494A7C
:103DAC00494A494A494A4A4A4A4A4A4A4A4A4A4A6A
:103DBC004A4A4A4A494A494A494A494A4A4A4A4A5B
:103DCC004B4A4B4A4A4A4A4A4A4A4A4A8B520B5B2A
:103DDC000C634C6B8D732E7CCD6BCD6B2E742F7452
:103DEC008D6BCA528942894A0B5B4C5B0A5B894AD0
:103DFC008842884AC84A09534B5B4C638D6BCD7320
:103E0C002E74CD6B4D638D634C634C634C5B0B5BC1
:103E1C00CA5ACA52CA52CA524C63CE732F7CCE7342
:103E2C004D6B8E73B294B6B5BAD679C638BEB6B5EC
:103E3C00339D307C4D630C5BCE63F2847595749529
:103E4C00F38CCF6B0C53CB4A8E6B75A538BEF7B584
:103E5C0074A570840B5B073A094209420942094276
:103E6C00094A094A094A094A094A094209420942C6
:103E7C000942094A094A094A494A494A094A094A26
:103E8C00094A094A494249420942094A084A4852E0
:103E9C00475A886A2E9CB3D5F5FE70D52CAC8C9BFA
:103EAC00CD9B8E934E8B0D830D7B0D7BCD7ACD7A76
:103EBC008C728C6A8B628B628B628B628B628B6274
:103ECC008B628B624A5A4A5A4A624A5A4A628B62DB
:103EDC008B6A8B624A624A628B62CC6ACC6A8B6256
:103EEC00094AC841C8390942C839083A0842094A3E
:103EFC00094A094A094A084A09420942094A094A2F
:103F0C00094A094A095249524A524952094AC84176
:103F1C00C841C841C841C841C841C74187398741D8
:103F2C00C849495A8B6A0C7B49628A6A8B6A8A6ACD
:103F3C00496249628A6A0C738A6A4962C85108529A
:103F4C00095A4A62CB6A0C73CB6ACB6ACB6ACB6ACE
:103F5C00CB720C730C734D7BCC6A8A62495209523A
:103F6C00495A8A628B628B62CB628A624A5A8A6233
:103F7C00CC6A0C730C6BCB6ACC6A0C6B0C6B0C6B39
:103F8C00CB624A5A0952084A084A49528A5A8A52FA
:103F9C0008428639C639C7418739C739C741C7393D
:103FAC00873987398739C7390842494A494A8A5279
:103FBC008A528A4A4A4A4A4A8B5A8B528A524A52E3
:103FCC004A4A494A494A494A0942494A4A4A4A4A92
:103FDC004A4A4A524A524A4A494A494A4A4A8A52DF
:103FEC00494A08428A524D6B718CD07B0D6BCB5A6F
:103FFC008B528B528B5ACC5A37C637C637C637C6FC
:10400C0037C637C637C637C637C637C637C637C6BC
:10401C0037C637C637C637C637CE37CE37CE37CE8C
:10402C0037CE37CE37CE37CE37CE37CE37CE37CE5C
:10403C0037CE37C637C637C636CE36CE36CE36CE68
:10404C0036CE36CEF6C5F6C5F6C5F6C5F6C5F6C5FA
:10405C00F6C5F6C5F6C5F6C5F6C5F6C5F5C5B5C5BE
:10406C00F5C5B5BDB5BDB5BDB4BDB4BDB4BDB4BD70
:10407C00B4BD74BD74BD74BD74BD74BD74B573B57D
:10408C0073B573B533B533B532AD32ADF2ACF2AC0A
:10409C00F2ACF2A4F1A4B1A4B19CB19CB094709414
:1040AC0070946F8C0B6386390421042146294629B0
:1040BC00462905210521052105210521052105217B
:1040CC004521452145294529452945294629462982
:1040DC0046294629462946294629462986298631D4
:1040EC008631863187318731873187318731873106
:1040FC00873187318739C739C739C739C739C73984
:10410C00C739C839C839C839C839C839C839C8399C
:10411C00C839C839C839C839C841C841C84108422A
:10412C00084209420942094209420942094209422C
:10413C000942094A094A094209420942094209420B
:10414C0009420942094A094A494A494A494A494ADB
:10415C00494A494A494A494A494A494A494A494ABB
:10416C00494A494A494A494A094249424942494A03
:10417C00494A494A494A49424A4A4A4A4A4A4A4A9F
:10418C004A4A4A4A4A4A0A4A4A4A494A4A4A8A527C
:10419C000B5B4C6B8C6B8C6B6F7C2E74CD6BCD6B0B
:1041AC008D6B4C630C5B0B5B0B534C634C630B5B6D
:1041BC00C952894AC84AC952C94AC94AC9520A533A
:1041CC000A53894A48424842CA520B53CA52894A36
:1041DC004842CA52CE73B294F394F394F394B28CD3
:1041EC00718CB294349D74A5F39C349D34A5F39CCE
:1041FC007184CF73CF73CF73306C2F6CCF6BCF6B4D
:10420C004D5B8A42CB4A317CF7B5BACEFACEF7B5C4
:10421C00B18C0C6348428529083A083A0842084296
:10422C0008420842C841C8410842084208420842B4
:10423C000942094A094A094A0842084A084A094AED
:10424C00094A094A49424942494A494A084A0752D5
:10425C00075247628C8BEFBC70CD6CB48A930A8B7F
:10426C004B8B0C8B0C7BCC7ACC728C728C728C72D0
:10427C008B6A8B6A8B628B628B628A624A624A623D
:10428C004A628B624A624A5A4A5A4A5A4A624A6299
:10429C004A624A624A628B628B624A620952C8491C
:1042AC00C841C739C839C8390842084208420842CF
:1042BC00094A094A094A095209420942094A094A62
:1042CC00094A094A084A084A4952094A084AC8414F
:1042DC00C841C841C841C8390842084A49528A5A9B
:1042EC00CC6ACC6A8B6A4A62CB728A6A4A6A8A6ADC
:1042FC00CB6ACB6A8A62495A496249628A628A628B
:10430C004962495A8A62CB6ACB6A0C734D7B4D7BEE
:10431C00CB6A8A62495A495A4A5A4A5A8A624A5A52
:10432C00495A495A4A5A4A5ACC6ACC6A0C6B0C6B99
:10433C00CC6ACC6ACC6A0C6BCB628B628A5A0952FF
:10434C00C849C84949528A5A084A87418631863930
:10435C00C741084A0842C739C8410842094A49526C
:10436C004A52494A0842C841C739084208420942E0
:10437C00094209420842083A0942084208420942E5
:10438C00494A494A494A494A8B528B5A8B528A525A
:10439C004A4A4A528A528A524942094208428A4A35
:1043AC004D6BCF7B8F734E6B4A4A4A528B528B5A52
:1043BC00CC5ACC62CC62CC5A37C637C637C637C655
:1043CC0037C637C637C637C637C637C637C637C6F9
:1043DC0037C637C637C637C637CE37CE37CE37CEC9
:1043EC0037CE37CE37CE37CE37CE37CE37CE37CE99
:1043FC0037CE37CE37CE37CE36CE36CE36CE36CE8D
:10440C0036C636C636C636C636C6F6C5F6C5F6C583
:10441C00F6C5F6C5F6C5F6C5F6C5F6C5F6C5F5C5B9
:10442C00F5C5B5BDB5BDB5BDB5BDB5BDB4BDB4BDAA
:10443C00B4BD74BD74B574B574BD74BD74B573B5C9
:10444C0073B573B533B533B533B532AD32ADF2ACFC
:10445C00F2ACF2A4F1A4B1A4B19CB19C709C709488
:10446C00709470948D7349524529C42005294529AF
:10447C000521052145214521052105210521052180
:10448C0045214521452145294529452946294629C6
:10449C004629462946298629862986298631863148
:1044AC008631873187318731873187318731873141
:1044BC008731873187398739C739C739C739C73900
:1044CC00C839C839C839C839C839C839C839C839D8
:1044DC00C839C839C839C839C839C839C841084277
:1044EC00084208420942094209420942084209426B
:1044FC000942094209420942094209420942094258
:10450C000942094209420942094A094A094A094A27
:10451C00094A094A094A094A094209420942494ACF
:10452C00494A49420942094209420942094249425F
:10453C004942494209420942094209420942094297
:10454C0009420A4A4A4A4A4A4A4A494A094249429B
:10455C008A4A0B5B4C634C63CA52CA52C94ACA4A58
:10456C00CA52CA52894A4842C94A0B5B4C634C63D3
:10457C004B630A5BC952C9524B5B4B5B4C5B4C5B4C
:10458C004C5BCA4A473A0632073A8942CA52CA5267
:10459C00CA520B5B4B638C6BCE73707CF294F39CA6
:1045AC00B28C3084CF7B4D6BCB5A494A0842494A76
:1045BC000C5B8E6BCF73CF736E746F742E6CCD637C
:1045CC002E6CF28C37B6FBD6BACE79C638BE35A572
:1045DC004E6BC73987310842C731C739C7390842D2
:1045EC000842084208420842083A083A083AC839D0
:1045FC00C839C739C739C739C739C739C739C739AE
:10460C00C739C839C839C839C839C839C839C74190
:10461C00C741C74948620B7BCE938D834C7B0C738F
:10462C000D73CD6ACC6ACC628B628B628B6A8B6A9F
:10463C008A628A628A628A628B5A8B5A4A5A4A5AAC
:10464C004A5A8B5A8B5A8B5A4A5A8B5A4B5A4A5A39
:10465C004A5A4A5A8B628B628B5A4952C8418739E3
:10466C00C839C839C839C739C739C839083A0942AD
:10467C000942094A084A084A094A094AC849C84924
:10468C00C849084A084A084A084A084AC749C8415A
:10469C00C841094A4A528B5A0852095249524A6235
:1046AC008B6ACC72CC72CB724A6A4A6A4A6A496A81
:1046BC00496249628A6ACB728A6A495A085A4962C3
:1046CC00CB6A0C730C730C73CC6ACB6A8A62495A32
:1046DC0049628A628A624A62094A49524A5A4A5A69
:1046EC0049528A5ACB620D6B8A5ACB620C6B0C6B9B
:1046FC00CC6A8B624952095249524952094A084ABA
:10470C00C741C741084A494A8A528A528A528A5238
:10471C008A528A52CB5A0C638B5A4A52094A084223
:10472C000842084A08420842094A08420842C8415D
:10473C00C841C841C841C841C739C84108420842AC
:10474C00C839C83908420942C84109424A4A8A5202
:10475C008B528B524A4A0942CB528E73D07B4D6B93
:10476C004A4A0942494A4A4ACB5ACB5A8B5ACB5AE3
:10477C00CB5ACC620D634D6B37C637C637C637C6BE
:10478C0037C637C637C637C637CE37CE37CE37CE15
:10479C0037CE37CE37CE37CE37CE37CE37CE37CEE5
:1047AC0037CE37CE37CE37CE37CE37CE37CE37CED5
:1047BC0037CE37CE37CE37CE37CE37CE36CE36CEC7
:1047CC0036CE36CE36C636C636C636C636C6F6C52E
:1047DC00F6C5F6C5F6C5F6C5F6C5F6C5F6C5F6C5F5
:1047EC00F5C5F5C5F5C5B5BDB5BDB5BDB5BDB4BD56
:1047FC00B4BD74BD74B574B574BD74BD74B573B506
:10480C0073B573B573B533B533B532AD32ADF2ACF8
:10481C00F2ACF2ACF1A4F1A4B19CB19C709C70947C
:10482C0070947094CE7BCB628631C31805214529D8
:10483C00052104214521452105210521052145217D
:10484C0045214529452945294529452945294629F3
:10485C004629462986298629862986298631863144
:10486C00863186318731873187318731873187317E
:10487C008731873187318731C739C739C739C7394C
:10488C00C739C739C839C839C839C839C839C83916
:10489C00C839C839C839C839C839C839C839C83904
:1048AC00C839C841C8410842084208420842084277
:1048BC000942094209420942094209420842084296
:1048CC000942094209420942094209420942094284
:1048DC000942094209420942084208420942094276
:1048EC000942094209420942094209420942094264
:1048FC000942094209420942494A494209420942CC
:10490C000942094209420942C841C841083AC8391A
:10491C00083A494A0B5B4D6B4B5B0A53894A484238
:10492C004842483A483A473A073ACA524B634C63B2
:10493C004B5B0A53C9520A5B4B534C5B8C63CD6B7C
:10494C00CE6B8C63CA52894A894A894A484248428A
:10495C00894A0A5B4C638C6B2F742F7C2F7C2F7CC9
:10496C00CF73CB5AC7398631C739C739083A8A52FF
:10497C000C5B8E6BCF732F74CD6B6F742E74CD63F9
:10498C00707CF6AD78BEB6A5F7B579C6F7B53084B0
:10499C000942462987318731C731C731C731C739F9
:1049AC008739863987318631462986298631C73140
:1049BC00C83908420942094A494A494A494A8A526D
:1049CC008A528B52CB5ACB5A0C630C630C630C631C
:1049DC000C6B0C730B7B4C834B7B4C7B0C730C73F5
:1049EC00CC6ACC6A8C628C628B628B628A628A6AB9
:1049FC008A628A628A628A628B5A4A5A4A5A4A5A2A
:104A0C004A5A8B5A8B5A8B5A4A5A8B5A8B5A4A5A35
:104A1C004A5A8A5A8B628B62094A084AC8418739BA
:104A2C0087398739C7318731C839083A0942094A69
:104A3C00494A094A084A084A094A094AC849C84918
:104A4C00C849C849084A084A49524952495A495220
:104A5C00094AC849C841C8490952495A4A5A4A627E
:104A6C008A624A6A4A624A6A4A6A0962085A49620E
:104A7C008B6A8B6A496208528A62CB6ACC72CB6AA7
:104A8C004A62095A495A495ACB6ACB6ACB6A8A623A
:104A9C00085208520852495ACB62CB62CB628B62E5
:104AAC008B62CB62CC6A0C6B0C6BCB624A5A095290
:104ABC00094A49524A528A5A4952495249524A520F
:104ACC004A524952494A494A8A528A5ACB5ACB626B
:104ADC00CB5ACB5ACB5ACB5A0C63CC628B5A8A52D8
:104AEC008A528A528A528A524A52494A494A09423D
:104AFC0008420842C841C8390942094209420942E0
:104B0C0009420942C841C839094A0842C839C84152
:104B1C004A520C634E6B4E73CC5ACB524A4A0942E2
:104B2C000942494A8B52CB5ACB5ACC5ACC62CC62F2
:104B3C00CC62CC5ACC5ACC6237C637C637C637C6CD
:104B4C0037C637C637C637C637CE37CE37CE37CE51
:104B5C0037CE37CE37CE37CE37CE37CE37CE37CE21
:104B6C0037CE37CE37CE37CE37CE37CE37CE37CE11
:104B7C0037CE37CE37CE37CE37CE37CE37CE37CE01
:104B8C0036CE36CE36CE36CE36CE36C636C636C611
:104B9C00F6C5F6C5F6C5F6C5F6C5F6C5F6C5F6C531
:104BAC00F6C5F5C5B5C5B5C5B5C5B5C5B5BDB5BDB8
:104BBC00B5BDB4BD74B574B574B574B574B574B510
:104BCC0074B573B573B573B533B533AD32AD32ADB2
:104BDC00F2ACF2A4F2A4F2A4B19CB1A4B09C709C6F
:104BEC0070946F94CE834C6B8639831804214529BD
:104BFC0005210421452105210521052105214521FA
:104C0C004521452945294529452145294529452938
:104C1C004629462946294629462946298629862990
:104C2C0086318631863186318731873187318731BC
:104C3C008731873187318731873187318739873998
:104C4C0087398739C739C739C739C739C739C739D8
:104C5C00C739C739C739C739C839C839C839C83944
:104C6C00C839C839C839C839C839C839C839C83930
:104C7C00C839C839C839C841C839C839C839C83918
:104C8C00C839C839C841084208420842084208429B
:104C9C000842084208420842083AC839C839C8399B
:104CAC00C839083A08420842083A083A083A084211
:104CBC000842083A083AC8390942094208420842EF
:104CCC00C841C839C839C839C839C839C839C839C8
:104CDC00C7390842CB5ACE73CE738C6B0B5BC9525F
:104CEC00894A8842884A894A894ACA520B5B0B5BBB
:104CFC000B5BCA52894A4942CB524C5B4D63CE6B1B
:104D0C002F742F74CD6B8D6B8C6BCD6B8C634B5B5D
:104D1C00094BC94A4A538B5B8C637084F28C708448
:104D2C004D6BC73903198631452986314842894A6A
:104D3C00894ACA4A4C632E742D6CCC632E743295FE
:104D4C00F5AD78BE36B6349DF6B5B6AD307C0942BD
:104D5C008731C9390A4A09424A4A8A4A8A528B52CD
:104D6C00CB5ACC5ACC620C630D630D630D630D638F
:104D7C000D630D630D630D634D6B4D6B0D630D6317
:104D8C000D630C630C63CD62CD5ACC5ACC5A8C5A41
:104D9C000C630D6B0D734D73CD6ACD6ACD62CC6215
:104DAC00CC5A8B5A8A624A628A628A628A5A8B5AB3
:104DBC008B5A8B528C528C524A5A4A5A8A528B5A60
:104DCC008B5A8B5A8A524A524A5A8B5A4A5A4A5AC4
:104DDC008B5A8B624B5A4A520842C841C841C73958
:104DEC0087398739C839C83908420942094208420B
:104DFC00C841C841C8410842C841C841C841084AD5
:104E0C00094A094A094A0952084AC849C741C749C7
:104E1C00C84909524A5A4A628B6A8A6A4A62495A92
:104E2C00085A085A085A095A8A6ACB72CC728A6A8A
:104E3C00085A085A8A6A4D7BCB6ACB6A4962495A2E
:104E4C00495A495A8A628A628A62495A09520952F3
:104E5C008A62CB6ACC6ACC6A8A5A4A5A8A5A8B5A68
:104E6C008B628B628A5A4A5AC841094A8A5ACB6267
:104E7C00CB62CB628B5A8A5A8B5A8A5A8A528A5282
:104E8C008A5A8A5A8B5A8B5A8A5A4A5249528A5A85
:104E9C00CB620C63CB5A8A52494A49524A528A52C3
:104EAC008A524A524A528A528A528A5A8A5A8B5A7D
:104EBC008A5A4A52494A084A87398739C841C841EF
:104ECC00094A094A4A524A52094A4A528B5ACC62F6
:104EDC000C63CB5A094A87390942494A8A528B5288
:104EEC004A4A09420942494A4A4A8A528A528A52D1
:104EFC008A528A52CB5ACC5A37C637C637C637C6AF
:104F0C0037C637C637C637C637CE37CE37CE37CE8D
:104F1C0037CE37CE37CE37CE37CE37CE37CE37CE5D
:104F2C0037CE37CE37CE37CE37CE37CE37CE37CE4D
:104F3C0037CE37CE37CE37CE37CE37CE37CE37CE3D
:104F4C0037CE37CE36CE36CE36CE36CE36CE36C63B
:104F5C0036C6F6C5F6C5F6C5F6C5F6C5F6C5F6C52C
:104F6C00F6C5F6C5F5C5F5C5B5C5B5C5B5BDB5BD73
:104F7C00B5BDB4BDB4BDB4B574BD74B574B574B5BC
:104F8C0074B574B573B573B533B533AD33AD32ADEC
:104F9C00F2ACF2ACF2A4F2A4B19CB1A4B09CB09C63
:104FAC0070942F8C2F8C4D73C739C318C4200521D6
:104FBC000521042145210421052105210521052177
:104FCC000521452145214521052145214529452915
:104FDC00452946294629462946294629462946294E
:104FEC00462946294629462946314631863186319D
:104FFC0086318731873187318731873187318731E6
:10500C0087318731873187318731873187318731D4
:10501C0087318731873187318731873187318731C4
:10502C00873987398739873987318739C739C739FC
:10503C0087398739C739C839C839C739C739C739E2
:10504C00C739C839C839C839C839C839C839C8394D
:10505C00C839C839C839C839C839C839C739C7393E
:10506C00C739C739C839C839C839C839C839C8392E
:10507C00C839C839C839C839C739C739C739C8391F
:10508C00C839C839C839C8390842C839C739C839C4
:10509C00C739C8398A4A4D6B2E74CE738D6B4C63ED
:1050AC000B5B0A5B0A530A5BCA52CA52C94ACA5200
:1050BC00CA52894A073AC631483A894ACA524C5BA5
:1050CC008D6BCE732E742E74CD732E746F7C6F7C9F
:1050DC002E746F74328DF5A5F9CEB9CEF6B5B5AD8B
:1050EC0074A58D73C6398529C631C6314842CB5A51
:1050FC004C5B0B5B4B5B4C5B8B5B4A53CC63F18C1B
:10510C00B4A5B5A574A5339DCE734D634A4A4A4ADE
:10511C00CC5ACC5ACC5A0E63CB52CB52CB528B526C
:10512C008B528B528B528A528B528B528B528B528C
:10513C008B528B528B528B528B528B528B528B527B
:10514C008B5A8B5ACB5A8C5A8B528B528B528C5A01
:10515C00CC620C6BCC6ACC6ACC62CC628C5A8B5A0B
:10516C008B5A8B5A4A5A4A628A624A628A5A8A5AB9
:10517C008B528B528C528C524A5A8B5A8B5A8B5A5A
:10518C008B5A8B5A4A524A524A5A4A524A524A5A91
:10519C008B5A8B5A4A52C94909420842C841C841E4
:1051AC00C841C841C841C8418739C739C739C8390E
:1051BC00C841C841C841C841C841C849094A094AFF
:1051CC00084AC849C849C849C849C7418741C8495C
:1051DC0009524A628B628B620852C851C8510852FC
:1051EC0049628A6ACB720C7B8A6A496249628A6A12
:1051FC00CB6ACB728A62495A495A8A628A6A8A6233
:10520C008A628A62CB62CB62CB6ACB6ACC6ACB6A8B
:10521C008A628A624A628A620C6BCC628B628A5A9C
:10522C004A52495249524952CB628B5A8A5A495274
:10523C0049524A5A8A5A8A5A8A5A8B5ACB5ACB5A48
:10524C008B5A8B5ACB5ACB62CB62CB62CB628A5ACB
:10525C008A528A528A52CB5A8A5A8A5A8A524A5249
:10526C00494A494A4A528A524A528A528A5A8B5A53
:10527C00CB5ACB5A8B5A8B5A8A524A52094AC8413A
:10528C00C841C841094A4A528F734E730C634A5243
:10529C00094A094A4A4A4A52094A0942494A8A521F
:1052AC000C634D6B0C638B5A4A528A528B5A8B5A35
:1052BC008B528A528A528B5A37C637C637C637C674
:1052CC0037C637C637C637C637CE37CE37CE37CECA
:1052DC0037CE37CE37CE37CE36CE36CE36CE36CE9E
:1052EC0036CE36CE36CE36CE37CE37CE37CE37CE8E
:1052FC0037CE37CE37CE37CE37CE37CE37CE37CE7A
:10530C0037CE37CE37CE37CE37CE36CE36CEF6CDAD
:10531C00F6CDF6C5F6C5F6C5F6C5F6C5F6C5F6C5A1
:10532C00F6C5F6C5F6C5B6C5B5C5B5C5B5BDB5BDED
:10533C00B5BDB5BDB4B5B4B574BD74BD74B574B5F7
:10534C0074B574B573B573B533B533AD33AD32AD28
:10535C0032ADF2ACF2A4F2A4B1A4B1A4B09CB09C56
:10536C006F942E8C2F8C8D7B084A042104210421F0
:10537C0004210421042104210421042105210521F7
:10538C0005210521052105210521052105214521A1
:10539C004521452945294529462946294629462995
:1053AC004629462946294629462946294629462979
:1053BC0046294631863186318631863186318631B1
:1053CC008631863187318731873186318631863116
:1053DC008631863186318731873187318731873104
:1053EC0087318731873187318631873187318731F2
:1053FC0087318731873187318731873187318731E1
:10540C0087318731873187398739873987398739A8
:10541C0087398739873987398731873187318731A0
:10542C0087318731873187318731873187318731B0
:10543C008731873187318731C731C7318731873120
:10544C008731873187318731873186318631863193
:10545C0086298631083A8A4ACD73CD738D6B0B5BE6
:10546C00C952C952C952CA524B634C630C63CB52DA
:10547C000942462905214621C7314842894ACA5268
:10548C004C5B8D6B2E7C6F846E7C2D6C2D6C6E6CDE
:10549C006E6C6E74307DB395B8C6B8C636B674A54E
:1054AC00F294CE7B0C634D6B0C63CA52CA524C5BAC
:1054BC008C634C5B8C63CD6B2E6C2F746F746F7420
:1054CC006F74707CCE6B0B5B4C638E6B4C63CB52EE
:1054DC004A4A0942494A4A4A4A4A8A4A4A4A4B5221
:1054EC004B524B524B524B528B4A8B528B528B52D0
:1054FC008C528C528C528C528C528C528C528C52B0
:10550C008B528B528B528B528B528C52CD5A0D63C9
:10551C004E6B0E6BCD62CC628B6A8B628B5A8C5A43
:10552C008C5A8C5A4C5A8C624B624B624B5A4A5274
:10553C004A528A528B5A8B5A8B5A8B5A8B5A8B5A89
:10554C008B5A4A524A528B5A8A524A524A528B5A54
:10555C008B5A4A5A094AC849C84108420842094A62
:10556C00094A094AC841C84188418841C841C841D3
:10557C00C849094AC849C849494A4A4A494A094294
:10558C00C8398739873988418739C849495A8B6A5C
:10559C00CB728B6A0962C751085A49628A6ACB720C
:1055AC00CB728A6A4962085A4962CB6A0C730C73D3
:1055BC00CB6A8A62495A495A495A495A8A62495AA3
:1055CC00495A8A5ACB62CB6ACB628A5A495A495A8F
:1055DC008A62CB6ACC6ACC6A8A5A4A524952094AC4
:1055EC00094A4A528B5ACB624A524A528B5ACB6264
:1055FC00CC62CC628B5A8A528B5ACB620C630C6B8A
:10560C000C63CC62CB5A8B5A8A5A8A5A4A52494AF0
:10561C00094A094A49524A52CC62CC62CB5A8B5A3B
:10562C004A524952494A494A4952495249524952A5
:10563C004A524A5A8A5A8A5ACB5A8B5A8A528B5A8B
:10564C00CC620C63CB628B5A86318739C841094ACC
:10565C0049524A524A52494A4A52CB5ACC62CB5AC4
:10566C004A520842C841C841094A094A494A494A6A
:10567C008A520C638E73CF7B37CE37CE37CE37CE74
:10568C0037CE37CE37CE37CE37CE37CE37CE37CEE6
:10569C0037CE37CE37CE37CE36CE36CE36CE36CEDA
:1056AC0037CE37CE37CE37CE37CE37CE37CE37CEC6
:1056BC0037CE37CE37CE37CE37CE37CE37CE37CEB6
:1056CC0037CE37CE37CE37CE37CE37CE36CE36CEA8
:1056DC00F6CDF6CDF6C5F6C5F6C5F6C5F6C5F6C5D6
:1056EC00F6C5F6C5F6C5F6C5B5C5B5C5B5BDB5BDEA
:1056FC00B5BDB5BDB5B5B4B5B4BD74BD74B574B5F3
:10570C0074B574B573B573B533B533AD33AD32AD64
:10571C0032ADF2ACF2A4F2A4B1A4F2A4B09CB09C51
:10572C006F942E8C2F8CCE83484A0429042104219B
:10573C000421042104210421042104210421042135
:10574C000421042104210421052105210521052121
:10575C0005210521052105214629462946294629E9
:10576C0046294629462946294529452946294629B7
:10577C00462946294631863146294631463146313D
:10578C0046318631863186314631462946294629AD
:10579C00462946294629463186318631863186315D
:1057AC00863186318631863146298631873186317C
:1057BC0046314629863187318731873187318731A8
:1057CC00873187318731873187318731873187310D
:1057DC008731873187318731862986318631863109
:1057EC008631863146294629862946294629462965
:1057FC0045294521052105210521052105210521E5
:10580C000521452946298631462946298631873185
:10581C0087318731083A4A4AC9524C6BCD738C6B2D
:10582C000A5B0A5B0A5B0A5B894A894A494A8A4ACB
:10583C008B4A4B4A4B4A8B4A4A4A8A4A894A4842C3
:10584C00894A0A538C6B2E74CD6B8B5B8B5B2D6CE6
:10585C006E746D6C6D6CAF6C6F7C2F7CB08473A5AB
:10586C00F6B5B6B5F39C2F84CB5A894A894A0B53AB
:10587C000A530A534B5BCD6B2E6C6F746F7C6F7439
:10588C00B07CB18C2F744B5B894A494A0842084260
:10589C000942494A8A52494A8A4A8B4A8B528B524C
:1058AC008B528B528B528B528B528B528B528C5203
:1058BC00CC528C528C528C52CD52CD52CC5A8C5ADA
:1058CC008C5A8C5A8C5A8C5A8B528C52CD5A0D63E2
:1058DC000D63CD62CC5A8C5A8B628B628B5A8C5A6C
:1058EC008C5A8C524C5A8C628C624B624B5A4A5278
:1058FC008A528B528B5A8B5A8B5ACB5ACB5A8B5A05
:10590C004A524A528A528B5A8B5A8A528B5A8B5A07
:10591C008B5A4A52094AC949094A494A494A4A5280
:10592C004A524A4A094A094A094AC849C841C8411F
:10593C00C841C841C841C8418739C739C7398739B7
:10594C008739C8414A4A8B5ACC6ACC624A5AC851E8
:10595C0087498749085A4962CB72CB72CB728A6AE3
:10596C0049624962CB6A0C73CB6A8A62495A085203
:10597C00085208524952495A4A5A8A62CB628A6280
:10598C008A5A8A5A495A495A495A8A5A8B62CB6A54
:10599C00CB6A8A62495A0952094A094A49524A5AF7
:1059AC008B5A8B5A8B5A8A5A4A528B5ACC62CC627B
:1059BC008B5A4A524A528A52CC62CB5A8B5A8B5AC5
:1059CC008B5A8B5A8A524A528A524A524A52CB5A50
:1059DC000D6B4D6B4D6B0D6B8A5A4A52494A094AF5
:1059EC00494A494A494A094A4A524A5A8A5A8A5A97
:1059FC004A524952094A084AC7398B5A8F7B30841C
:105A0C008F7B0C638B5A8A5A8B5A094A8739863199
:105A1C00C8418B5A0C630C634A524A4A494A494A58
:105A2C00494A494A8A52CB5ACC620C630C6B0C6BB8
:105A3C000C63CB5A8A528A5237C637C637C637C61A
:105A4C0037C637CE37CE37CE37CE37CE37CE37CE2A
:105A5C0037CE37CE37CE37CE37CE37CE37CE37CE12
:105A6C0037CE37CE37CE37CE37CE37CE37CE37CE02
:105A7C0037CE37CE37CE37CE37CE37CE37CE37CEF2
:105A8C0037CE37CE37CE37CE36CE36CE36CE36CEE6
:105A9C0036CE36CE36CE36CE36CEF6C5F6C5F6C5B5
:105AAC00F6C5F6C5F6C5F6C5F5C5F5C5B5C5B5BD9E
:105ABC00B5BDB5BDB4BDB4BDB4BDB4BD74BD74B5D8
